:100000000C942A000C9447000C9447000C94470071
:100010000C9447000C9447000C9447000C94470044
:100020000C9447000C9447000C9447000C94470034
:100030000C9447000C949F020C9476020C944D0291
:100040000C9447000C9447000C9447000C94470014
:100050000C94470011241FBECFE5D8E0DEBFCDBF12
:1000600010E0A0E6B0E0E4E9F5E002C005900D92F2
:10007000AA36B107D9F720E0AAE6B0E001C01D9288
:10008000AE38B207E1F70E94D8010C94C8020C9474
:10009000000082E0809385000895CF93DF931F9244
:1000A000CDB7DEB7CE0101960E943F028091740069
:1000B00090917500019690937500809374008091E3
:1000C0008600813009F087C080917400909175009E
:1000D000019789F4898180937800853A39F4998170
:1000E00080917200890F8093720075C01092750024
:1000F0001092740070C08091740090917500029706
:1001000069F4898190E090937D0080937C009981CF
:1001100080917200890F809372005DC0809174009D
:10012000909175000397E9F49BB381E089278BBB1D
:10013000E8E7F0E08481958199279583848329817C
:10014000398120917200230F209372002091760054
:100150003091770028173907F0F581E0809373001C
:100160003AC080917300811124C0209174003091B5
:10017000750080917C0090917D0003968217930713
:10018000C0F080916E0090916F002981E09179001C
:10019000F0917A00E80FF91F2083019690936F0089
:1001A00080936E00998180917200890F8093720014
:1001B00012C0209174003091750080917C00909164
:1001C0007D0004968217930731F4898180937B0028
:1001D00083E0809384000F90DF91CF91089589E4AC
:1001E00090E00E9443028DE490E00E9448020E9449
:1001F000F70108959C0190918700913071F081E0A2
:1002000080938700EEE7F0E085EA8083758364835E
:1002100032832183138283E0089580E00895CF9391
:10022000DF93809185008230F1F0833009F4A2C021
:100230008111B3C080918700813009F0AEC0CEE754
:10024000D0E0888190E00E943D0281E090E09093B0
:100250006D0080936C009B818881890F8B8381E086
:10026000809385009AC080918200909183002091B4
:100270006C0030916D00AC014C5F5F4F421753072B
:1002800021F483E08093850088C021303105B1F4EA
:1002900099270E943D0281E08093850080916C0047
:1002A00090916D00019690936D0080936C00EEE745
:1002B000F0E093818481890F83836FC02230310500
:1002C000B9F4892F90E00E943D0281E0809385007F
:1002D00080916C0090916D00019690936D008093D9
:1002E0006C00EEE7F0E085819381890F838355C030
:1002F00002968217930760F1CEE7D0E0E981FA8198
:1003000080916A0090916B00E80FF91F808190E066
:100310000E943D0280916A0090916B00E981FA8110
:10032000E80FF91F30812B81230F2B8301969093C7
:100330006B0080936A0081E08093850080916C005F
:1003400090916D00019690936D0080936C0025C094
:100350008091810090E00E943D0281E080938500C1
:1003600080916C0090916D00019690936D00809348
:100370006C0013C0E0917000F0917100309709F0AB
:1003800009951092870010926D0010926C001092E7
:100390006B0010926A0010928500DF91CF91089552
:1003A00090937100809370000895D09AD89A089520
:1003B000CF93DF9300D000D01F92CDB7DEB70E945D
:1003C000EF0085ED91E00E94D00185E0E4E6F0E0E9
:1003D000DE01119601900D928A95E1F765E070E0DB
:1003E000CE0101960E94FA000E940F01FDCF80917C
:1003F0006000813039F018F0823039F00AC0539A29
:1004000081E008C0549A81E005C0539A549A81E073
:1004100001C080E090916200911104C090B596688F
:1004200090BD01C080E090916100911104C010BCAA
:1004300093E399B901C080E0909163009923E1F0C2
:10044000913011F080E0089590916000911105C005
:10045000569A9FB790689FBF0895913029F4579A94
:100460009FB790689FBF0895923031F49AB1906C15
:100470009AB99FB790689FBF08958CB908952CB121
:10048000FC012083089590938D0080938C00089543
:10049000909389008093880008951F920F920FB661
:1004A0000F9211242F933F934F935F936F937F93FA
:1004B0008F939F93AF93BF93EF93FF93E0918C0043
:1004C000F0918D00309709F00995FF91EF91BF9160
:1004D000AF919F918F917F916F915F914F913F91DC
:1004E0002F910F900FBE0F901F9018951F920F9293
:1004F0000FB60F9211242F933F934F935F936F93F7
:100500007F938F939F93AF93BF93EF93FF93E0916C
:100510008A00F0918B00309709F00995FF91EF91D7
:10052000BF91AF919F918F917F916F915F914F910B
:100530003F912F910F900FBE0F901F9018951F9213
:100540000F920FB60F9211242F933F934F935F9307
:100550006F937F938F939F93AF93BF93EF93FF938B
:10056000E0918800F0918900309709F00995FF919A
:10057000EF91BF91AF919F918F917F916F915F911B
:100580004F913F912F910F900FBE0F901F90189594
:04059000F894FFCF0D
:0A0594000200000148656C6C6F0066
:00000001FF
